:100000000C9434000C943E000C943E000C943E0082
:100010000C943E000C943E000C943E000C943E0068
:100020000C943E000C943E000C943E000C943E0058
:100030000C943E000C943E000C943E000C943E0048
:100040000C943E000C943E000C943E000C943E0038
:100050000C943E000C943E000C943E000C943E0028
:100060000C943E000C943E0011241FBECFEFD8E04C
:10007000DEBFCDBF0E9440000C94C0000C94000075
:100080008FEF84B99EE028E13DEB46E78CE395B91C
:100090005FE362E47FE0515060407040E1F700C0F0
:1000A000000025B95FE362E47FE05150604070409A
:1000B000E1F700C0000035B95FE362E47FE0515032
:1000C00060407040E1F700C0000045B95FE362E4C2
:1000D0007FE0515060407040E1F700C0000085B9FA
:1000E0005FE362E47FE0515060407040E1F700C0A0
:1000F000000085B95FE362E47FE0515060407040EA
:10010000E1F700C0000085B95FE362E47FE0515091
:1001100060407040E1F700C0000045B95FE362E471
:100120007FE0515060407040E1F700C0000035B9F9
:100130005FE362E47FE0515060407040E1F700C04F
:10014000000025B95FE362E47FE0515060407040F9
:10015000E1F700C0000095B95FE362E47FE0515031
:1001600060407040E1F700C0000015B85FE36DE04B
:1001700073E0515060407040E1F700C0000087CF4D
:04018000F894FFCF21
:00000001FF
