:100000000C9434000C943E000C943E000C943E0082
:100010000C943E000C943E000C943E000C943E0068
:100020000C943E000C943E000C943E000C943E0058
:100030000C943E000C943E000C943E000C943E0048
:100040000C943E000C943E000C943E000C943E0038
:100050000C943E000C943E000C943E000C943E0028
:100060000C943E000C943E0011241FBECFEFD8E04C
:10007000DEBFCDBF0E9440000C946F000C940000C6
:100080008FEF84B980E021E030E08730B1F487E081
:1000900090E0A901082E01C0440F0A94EAF745B97F
:1000A0004FE352E46FE0415050406040E1F700C040
:1000B00000000197009769F780E0A901082E01C0B0
:1000C000440F0A94EAF745B94FE352E46FE0415018
:1000D00050406040E1F700C000008F5FD6CFF89439
:0200E000FFCF50
:00000001FF
