:100000000C9434000C9451000C9451000C94510049
:100010000C9451000C9451000C9451000C94420229
:100020000C9451000C9451000C94D8010C94510084
:100030000C9451000C9451000C9451000C945100FC
:100040000C9451000C9451000C9451000C945100EC
:100050000C9451000C9451000C9451000C945100DC
:100060000C9451000C94510011241FBECFEFD8E026
:10007000DEBFCDBF11E0A0E0B1E0E0EFFEE002C0E6
:1000800005900D92AA30B107D9F721E0AAE0B1E0BE
:1000900001C01D92AE32B207E1F70E9467000C94D6
:1000A00076070C94000080E280936F0084EC8093CC
:1000B0008100ECE2F1E010821182089582E087BBBA
:1000C000809370008093B0008093B1000895CDB705
:1000D000DEB728970FB6F894DEBF0FBECDBF789479
:1000E0008FEF87B918B880E284B981E285B983E1DE
:1000F0008093B30087E690E00E9474020E94530050
:100100000E945E0088248A94982CA12CB12C90E047
:10011000C92E91E0D92E2AE0E22E21E0F22E04E051
:1001200011E080912C018230E1F7F89420911C01BC
:1001300030911D0180911E0190911F01821793073C
:1001400008F01BC180911C0190911D0120911E019E
:1001500030911F01821B930B9C0140E050E02983EA
:100160003A834B835C83CA01B9010E949F0320E05C
:1001700034E244E757E469837A838B839C83698103
:100180007A818B819C810E94FE02462F572FBC01F1
:10019000409328015093290160932A0170932B0109
:1001A000609128017091290180912A0190912B0181
:1001B00069837A838B839C8320E034E244E759E4AB
:1001C0000E942D04462F572FBC01409328015093C5
:1001D000290160932A0170932B018091280190914D
:1001E0002901A0912A01B0912B0189839A83AB83C5
:1001F000BC83BC01CD010E947003462F572F509342
:100200001B0140931A0180911A0190911B019C01DE
:1002100040E050E029833A834B835C83CA01B901F3
:100220000E949F0320E030E044E052E469837A8337
:100230008B839C8369817A818B819C810E942D04B0
:1002400020E030E04AEF54E469837A838B839C8317
:1002500069817A818B819C810E94FE02462F572FF3
:10026000BC014093240150932501609326017093B3
:100270002701409124015091250160912601709140
:10028000270149835A836B837C83CB01BA010E9487
:100290007003462F572F5093230140932201609102
:1002A0002401709125018091260190912701698395
:1002B0007A838B839C8380912201909123019C01FE
:1002C00040E050E02D833E834F835887CA01B90137
:1002D0000E949F039B01AC0169817A818B819C8183
:1002E0000E94910220E030E04AE754E469837A8377
:1002F0008B839C8369817A818B819C810E942D04F0
:1003000069837A838B839C8369817A818B819C81C9
:100310000E947003462F572F5093210140932001D4
:10032000789480912001909121019F938F93DF9287
:10033000CF92FF92EF920E94A504809122019091AA
:1003400023019F938F931F930F9341E151E05F939C
:100350004F930E94A50467E071E081E191E00E9463
:100360009A046AE071E081E191E00E949A040FB67C
:10037000F894DEBF0FBECDBFD4CE80911E01909108
:100380001F0120911C0130911D01B501A401481BE2
:10039000590B61097109420F531F611D711D49837A
:1003A0005A836B837C83CB01BA010E94A103DFCE09
:1003B0001F921FB61F9211242F933F938F939F93E9
:1003C000F89480912D01813041F1823009F43FC0D1
:1003D00081111AC08091860090E090931F01809354
:1003E0001E012091870080911E0190911F01922B88
:1003F00090931F0180931E01809181008F7B8093D9
:10040000810082E080932D0178949F918F913F919C
:100410002F911F901FBE1F9018952091860030E0ED
:1004200030931F0120931E019091870020911E019F
:1004300030911F01392B30931F0120931E019091A1
:1004400081009F7B9093810080932C01DACF2091D3
:10045000860030E030931D0120931C0190918700AD
:1004600020911C0130911D01392B30931D012093E7
:100470001C019091810090649093810080932C01E5
:1004800081E0C0CF1F921FB61F9211242F938F932C
:100490009F93F8948091180190911901019690937F
:1004A0001901809318018091180190911901019709
:1004B00009F42D9A8091180190911901029709F47D
:1004C0002D9880911801909119018C3B924021F454
:1004D000109219011092180178949F918F912F9189
:1004E0001F901FBE1F901895CF93DF9325EC30E02F
:1004F000F9011082C4ECD0E01882A1ECB0E01C92AB
:1005000042EC50E0FA0110821092C600F90110820C
:10051000888388E08C9386E0FA018083DF91CF9115
:1005200008955058BB27AA270E94A9020C94F303F0
:100530000E94E50338F00E94EC0320F039F49F3F5D
:1005400019F426F40C94E2030EF4E095E7FB0C9406
:10055000DC03E92F0E94040458F3BA1762077307FB
:100560008407950720F079F4A6F50C9426040EF480
:10057000E0950B2EBA2FA02D0B01B90190010C01B3
:10058000CA01A0011124FF27591B99F0593F50F4CB
:10059000503E68F11A16F040A22F232F342F442723
:1005A000585FF3CF469537952795A795F04053951B
:1005B000C9F77EF41F16BA0B620B730B840BBAF0EB
:1005C0009150A1F0FF0FBB1F661F771F881FC2F756
:1005D0000EC0BA0F621F731F841F48F4879577956A
:1005E0006795B795F7959E3F08F0B0CF9395880F24
:1005F00008F09927EE0F9795879508950E941203AA
:100600000C94F3030E94EC0358F00E94E50340F0C1
:1006100029F45F3F29F00C94DC0351110C9427045A
:100620000C94E2030E94040468F39923B1F3552368
:1006300091F3951B550BBB27AA27621773078407F5
:1006400038F09F5F5F4F220F331F441FAA1FA9F38B
:1006500035D00E2E3AF0E0E832D091505040E69579
:10066000001CCAF72BD0FE2F29D0660F771F881FDA
:10067000BB1F261737074807AB07B0E809F0BB0BCD
:10068000802DBF01FF2793585F4F3AF09E3F5105E1
:1006900078F00C94DC030C9427045F3FE4F3983E5D
:1006A000D4F3869577956795B795F7959F5FC9F7CA
:1006B000880F911D9695879597F90895E1E0660F4B
:1006C000771F881FBB1F621773078407BA0720F0C4
:1006D000621B730B840BBA0BEE1F88F7E09508952D
:1006E0000E940C0488F09F5798F0B92F9927B751B2
:1006F000B0F0E1F0660F771F881F991F1AF0BA95C6
:10070000C9F714C0B13091F00E942604B1E00895F9
:100710000C942604672F782F8827B85F39F0B93FEB
:10072000CCF3869577956795B395D9F73EF4909578
:100730008095709561957F4F8F4F9F4F0895E894F6
:1007400009C097FB3EF490958095709561957F4F19
:100750008F4F9F4F9923A9F0F92F96E9BB279395C7
:10076000F695879577956795B795F111F8CFFAF4D7
:10077000BB0F11F460FF1BC06F5F7F4F8F4F9F4F08
:1007800016C0882311F096E911C0772321F09EE866
:10079000872F762F05C0662371F096E8862F70E0CC
:1007A00060E02AF09A95660F771F881FDAF7880FA6
:1007B0009695879597F9089597F99F6780E870E077
:1007C00060E008959FEF80EC089500240A941616C7
:1007D000170618060906089500240A94121613062F
:1007E000140605060895092E0394000C11F48823BD
:1007F00052F0BB0F40F4BF2B11F460FF04C06F5FD9
:100800007F4F8F4F9F4F089557FD9058440F551FAE
:1008100059F05F3F71F04795880F97FB991F61F082
:100820009F3F79F087950895121613061406551FF9
:10083000F2CF4695F1DF08C0161617061806991F65
:10084000F1CF86957105610508940895E894BB275A
:1008500066277727CB0197F908950E9440040C94EE
:10086000F3030E94E50338F00E94EC0320F0952387
:1008700011F00C94DC030C94E20311240C94270473
:100880000E94040470F3959FC1F3950F50E0551F2B
:10089000629FF001729FBB27F00DB11D639FAA27D5
:1008A000F00DB11DAA1F649F6627B00DA11D661F24
:1008B000829F2227B00DA11D621F739FB00DA11D45
:1008C000621F839FA00D611D221F749F3327A00DFF
:1008D000611D231F849F600D211D822F762F6A2F9B
:1008E00011249F5750409AF0F1F088234AF0EE0F00
:1008F000FF1FBB1F661F771F881F91505040A9F72D
:100900009E3F510580F00C94DC030C9427045F3F5C
:10091000E4F3983ED4F3869577956795B795F79568
:10092000E7959F5FC1F7FE2B880F911D96958795E0
:1009300097F90895FB01DC010D900020E9F711976C
:1009400001900D920020E1F70895AEE0B0E0EBEAEF
:10095000F4E00C944D070D891E8986E08C831A8380
:1009600009838FEF9FE79E838D83AE01475E5F4FC4
:100970006F89788DCE0101960E94C8042F81388539
:10098000020F131FF80110822E96E4E00C94690701
:10099000AFE0B0E0EEECF4E00C943F077C013B01EB
:1009A0008A01DC0117961C921E92169713968C9161
:1009B00081FFBEC19AE0292EFE0131964F01D70179
:1009C00013969C91F30193FD859193FF81913F01D3
:1009D000882309F444C1853239F493FD859193FF4E
:1009E00081913F01853229F4B70190E00E94B10660
:1009F000E6CFB12C412C512CBFE1B51538F08B322C
:100A000009F188F4803201F1833221F157FC3AC0B8
:100A100020ED280F2A3040F556FE1FC0B29C200D55
:100A20001124B22E06C08D3291F0803379F768948C
:100A300050F8F30193FD859193FF81913F0181115E
:100A4000DBCF20C0689451F8689452F8F2CF6894D4
:100A500053F8EFCF689454F8ECCF429C200D11244A
:100A6000422E689455F8E5CF8E3229F456FCF7C033
:100A7000689456F8DECF8C3619F4689457F8D9CFBD
:100A80008836B9F2982F9F7D95549330C0F0833605
:100A900081F18337A1F1833509F05BC0D801CD9096
:100AA000DD908D016B2D70E056FC02C06FEF7FEF83
:100AB000C6010E949B065C01689457F80AC00C5F4F
:100AC0001F4FEFE3E983AA24A394B12C6401E894B7
:100AD00057F853FE29C0342CA114B10451F533202A
:100AE00009F46DCFB70180E290E00E94B1063A941C
:100AF000F6CFD8018C9189830E5F1F4FE4CFF801A8
:100B0000C190D1908F016B2D70E056FC02C06FEF49
:100B10007FEFC6010E94A6065C01D9CFB70180E233
:100B200090E00E94B1064A944A141B0409F0B0F701
:100B3000D2CFF60157FC859157FE81916F01B70125
:100B400090E00E94B10631103A94B1E0AB1AB108BE
:100B5000C3CF843619F0893609F071C0F80157FE09
:100B600067C061917191819191918F01E52DEF762F
:100B7000DE2E97FF09C090958095709561957F4F07
:100B80008F4F9F4F6894D7F82AE030E0A4010E946D
:100B9000E106C82EC818AC2C5D2CD6FE0CC0E8941B
:100BA00050F8CB1440F4D4FE05C0D2FC03C05D2D38
:100BB0005E7E552EAB2C54FE93C0FE01EC0DF11D54
:100BC0008081803309F085C0652D697E562E752D94
:100BD0007870372E53FC93C050FE8DC0BC2CA414EB
:100BE00010F4B40CBA1854FE90C0B70180E390E042
:100BF0000E94B10652FE07C088E751FC88E590E0EC
:100C0000B7010E94B106CB1408F48BC0CA94D12C52
:100C10008FEFC81AD80AC80CD91CD6018E916D0165
:100C2000B70190E00E94B1068C149D04B1F757CF34
:100C300061917191072E000C880B990B96CFD52CE2
:100C4000E894D4F82AE0853729F1F52DF97FDF2ED5
:100C50008037A1F058F48835A1F08F36D1F0F70134
:100C6000868197812F96E2E10C945B078837B9F76C
:100C7000D4FE02C06894D2F820E10CC06894D4F885
:100C8000F7CF54FE03C02F2F2660D22E20E132E092
:100C900002C028E030E0F801D7FE15C04191519123
:100CA000619171914C875D876E877F878F01A40169
:100CB0006C857D858E859F850E94E106C82EC818AB
:100CC000E894D7F868CF81919191AC0170E060E031
:100CD000E9CF52FC02C0A3947ACFA394A39477CF18
:100CE000852D867809F473CFF6CFB70180E290E0C6
:100CF0000E94B106A394A414C0F3312C74CF342CF9
:100D00003A18A41408F46FCFF8CF852D867809F42B
:100D10007ACF8BE251FE80E257FC8DE2B70190E082
:100D200070CFB70180E390E00E94B106BA946BCF18
:100D30008FEF9FEF97CFFC0105906150704001103D
:100D4000D8F7809590958E0F9F1F0895FC016150F4
:100D5000704001900110D8F7809590958E0F9F1FDD
:100D600008950F931F93CF93DF93182F092FEB0153
:100D70008B8181FD09C01FEF0FEF812F902FDF9135
:100D8000CF911F910F91089582FF14C02E813F8152
:100D90008C819D81281739073CF4E881F981CF01C6
:100DA00001969983888310838E819F8101969F830A
:100DB0008E83E3CFE885F985812F0995892BA1F3EF
:100DC000DACFFA01AA27283051F1203181F1E894D5
:100DD0006F936E7F6E5F7F4F8F4F9F4FAF4FB1E02E
:100DE0003ED0B4E03CD0670F781F891F9A1FA11D29
:100DF000680F791F8A1F911DA11D6A0F711D811D2A
:100E0000911DA11D20D009F468943F912AE0269FEE
:100E100011243019305D3193DEF6CF010895462F4D
:100E20004770405D4193B3E00FD0C9F7F6CF462F2E
:100E30004F70405D4A3318F0495D31FD4052419397
:100E400002D0A9F7EACFB4E0A69597958795779554
:100E50006795BA95C9F700976105710508959B01DB
:100E6000AC010A2E06945795479537952795BA9564
:100E7000C9F7620F731F841F951FA01D08952F923D
:100E80003F924F925F926F927F928F929F92AF921A
:100E9000BF92CF92DF92EF92FF920F931F93CF9367
:100EA000DF93CDB7DEB7CA1BDB0B0FB6F894DEBFFE
:100EB0000FBECDBF09942A88398848885F846E8424
:100EC0007D848C849B84AA84B984C884DF80EE806E
:100ED000FD800C811B81AA81B981CE0FD11D0FB677
:100EE000F894DEBF0FBECDBFED010895F894FFCF9B
:0A0EF000253175002575002E000065
:00000001FF
